{
  "transactions": [
    {
      "hash": null,
      "transactionType": "CALL",
      "contractName": null,
      "contractAddress": "0x779877A7B0D9E8603169DdbD7836e478b4624789",
      "function": "transferAndCall(address,uint256,bytes)",
      "arguments": [
        "0x9DdfaCa8183c41ad55329BdeeD9F6A8d53168B1B",
        "3000000000000000000",
        "0xd854061be946d75e13d1d6d02c27a130ea9e533af8a7e78c9ca8fa7c7f7216b3"
      ],
      "transaction": {
        "type": "0x02",
        "from": "0x811d8c0ec4e5307afe8d224a9a52de7cbc09ce5d",
        "to": "0x779877a7b0d9e8603169ddbd7836e478b4624789",
        "gas": "0x14cbb",
        "value": "0x0",
        "data": "0x4000aea00000000000000000000000009ddfaca8183c41ad55329bdeed9f6a8d53168b1b00000000000000000000000000000000000000000000000029a2241af62c000000000000000000000000000000000000000000000000000000000000000000600000000000000000000000000000000000000000000000000000000000000020d854061be946d75e13d1d6d02c27a130ea9e533af8a7e78c9ca8fa7c7f7216b3",
        "nonce": "0x0",
        "accessList": []
      },
      "additionalContracts": [],
      "isFixedGasLimit": false
    }
  ],
  "receipts": [],
  "libraries": [],
  "pending": [],
  "returns": {},
  "timestamp": 1723483712,
  "chain": 11155111,
  "multi": false,
  "commit": "ee2f6d0"
}