{
  "transactions": [
    {
      "hash": "0x67824f993eabea465cd685387548b197a4f14e91ece25b8d88fcaffcb72c51b1",
      "transactionType": "CALL",
      "contractName": null,
      "contractAddress": "0x779877a7b0d9e8603169ddbd7836e478b4624789",
      "function": "transferAndCall(address,uint256,bytes)",
      "arguments": [
        "0x9DdfaCa8183c41ad55329BdeeD9F6A8d53168B1B",
        "3000000000000000000",
        "0xd854061be946d75e13d1d6d02c27a130ea9e533af8a7e78c9ca8fa7c7f7216b3"
      ],
      "transaction": {
        "from": "0x811d8c0ec4e5307afe8d224a9a52de7cbc09ce5d",
        "to": "0x779877a7b0d9e8603169ddbd7836e478b4624789",
        "gas": "0x14cbb",
        "value": "0x0",
        "input": "0x4000aea00000000000000000000000009ddfaca8183c41ad55329bdeed9f6a8d53168b1b00000000000000000000000000000000000000000000000029a2241af62c000000000000000000000000000000000000000000000000000000000000000000600000000000000000000000000000000000000000000000000000000000000020d854061be946d75e13d1d6d02c27a130ea9e533af8a7e78c9ca8fa7c7f7216b3",
        "nonce": "0x1f",
        "chainId": "0xaa36a7"
      },
      "additionalContracts": [],
      "isFixedGasLimit": false
    }
  ],
  "receipts": [
    {
      "status": "0x1",
      "cumulativeGasUsed": "0x68c7f4",
      "logs": [
        {
          "address": "0x779877a7b0d9e8603169ddbd7836e478b4624789",
          "topics": [
            "0xddf252ad1be2c89b69c2b068fc378daa952ba7f163c4a11628f55a4df523b3ef",
            "0x000000000000000000000000811d8c0ec4e5307afe8d224a9a52de7cbc09ce5d",
            "0x0000000000000000000000009ddfaca8183c41ad55329bdeed9f6a8d53168b1b"
          ],
          "data": "0x00000000000000000000000000000000000000000000000029a2241af62c0000",
          "blockHash": "0xf5e8d65b2770f5e3b629021ee512f6713ba7ec3e05b93dd7901478894ede9ffb",
          "blockNumber": "0x62fc85",
          "transactionHash": "0x67824f993eabea465cd685387548b197a4f14e91ece25b8d88fcaffcb72c51b1",
          "transactionIndex": "0x37",
          "logIndex": "0x56",
          "removed": false
        },
        {
          "address": "0x779877a7b0d9e8603169ddbd7836e478b4624789",
          "topics": [
            "0xe19260aff97b920c7df27010903aeb9c8d2be5d310a2c67824cf3f15396e4c16",
            "0x000000000000000000000000811d8c0ec4e5307afe8d224a9a52de7cbc09ce5d",
            "0x0000000000000000000000009ddfaca8183c41ad55329bdeed9f6a8d53168b1b"
          ],
          "data": "0x00000000000000000000000000000000000000000000000029a2241af62c000000000000000000000000000000000000000000000000000000000000000000400000000000000000000000000000000000000000000000000000000000000020d854061be946d75e13d1d6d02c27a130ea9e533af8a7e78c9ca8fa7c7f7216b3",
          "blockHash": "0xf5e8d65b2770f5e3b629021ee512f6713ba7ec3e05b93dd7901478894ede9ffb",
          "blockNumber": "0x62fc85",
          "transactionHash": "0x67824f993eabea465cd685387548b197a4f14e91ece25b8d88fcaffcb72c51b1",
          "transactionIndex": "0x37",
          "logIndex": "0x57",
          "removed": false
        },
        {
          "address": "0x9ddfaca8183c41ad55329bdeed9f6a8d53168b1b",
          "topics": [
            "0x1ced9348ff549fceab2ac57cd3a9de38edaaab274b725ee82c23e8fc8c4eec7a",
            "0xd854061be946d75e13d1d6d02c27a130ea9e533af8a7e78c9ca8fa7c7f7216b3"
          ],
          "data": "0x0000000000000000000000000000000000000000000000003782dace9d9000000000000000000000000000000000000000000000000000006124fee993bc0000",
          "blockHash": "0xf5e8d65b2770f5e3b629021ee512f6713ba7ec3e05b93dd7901478894ede9ffb",
          "blockNumber": "0x62fc85",
          "transactionHash": "0x67824f993eabea465cd685387548b197a4f14e91ece25b8d88fcaffcb72c51b1",
          "transactionIndex": "0x37",
          "logIndex": "0x58",
          "removed": false
        }
      ],
      "logsBloom": "0x00000004000000000000000000000000000000000020000000000000020000000000000000000000000000000000000000000000000000000000000000000000000000000000000000000008000000000000000000000000000020000020000008000000000000000000008000000000005000000000000000000010000040000000000000000000000000090000800000000020000000000000000000000000000000000000000000000000010000000000000000000000000004000000000000000002020000000000000000000000000000000000000100000000000000000010000000000000800000000000000000000020000000000000000000000000",
      "type": "0x2",
      "transactionHash": "0x67824f993eabea465cd685387548b197a4f14e91ece25b8d88fcaffcb72c51b1",
      "transactionIndex": "0x37",
      "blockHash": "0xf5e8d65b2770f5e3b629021ee512f6713ba7ec3e05b93dd7901478894ede9ffb",
      "blockNumber": "0x62fc85",
      "gasUsed": "0xf0e5",
      "effectiveGasPrice": "0x509f0f11",
      "from": "0x811d8c0ec4e5307afe8d224a9a52de7cbc09ce5d",
      "to": "0x779877a7b0d9e8603169ddbd7836e478b4624789",
      "contractAddress": null
    }
  ],
  "libraries": [],
  "pending": [],
  "returns": {},
  "timestamp": 1723483840,
  "chain": 11155111,
  "commit": "ee2f6d0"
}